:040000005AEF10F0B3
:1008000000556E6976657273696461642064652061
:100810000050726F796563746F2046696E616C0079
:10082000412E2D4672656375656E63696100496E80
:100830006772657365206369636C6F00432E2D5486
:100840007269616E67756C61720046726563756589
:100850006E6369613A00412E2D4375616472616473
:100860006100422E2D53656E6F6964616C00322EFB
:100870002D436F6D656E7A617200412E2D53656E4A
:10088000616C203100422E2D5365F1616C203200E5
:10089000422E2D53656E616C203200432E2D536520
:1008A0006E616C2033004775616E616A7561746FAB
:1008B0000047656E657261646F7200422E2D436958
:1008C000636C6F00312E2D4461746F730043696354
:1008D0006C6F3A20004672653A20004164696F737C
:1008E00000487A0025000000570ED36E000E0F015D
:1008F0005E6FF00E926E000E0F015B6F000E896E40
:1009000007EC0CF0DAEC12F0D3EC12F03D6E3D5037
:10091000200AD8A45BD0000E476E010E466EDAECBA
:1009200012F007EC0CF0010E2EEC0DF00C0E2EEC7C
:100930000DF0010E046E080E066E010E056E010E1E
:100940008AEC0FF0D2EC0FF0030E046E080E066E68
:10095000A60E056E020E8AEC0FF0D2EC0FF0010E1F
:100960002EEC0DF0010E046E080E066E110E056ED3
:10097000010E8AEC0FF0030E046E080E066EB10E27
:10098000056E020E8AEC0FF0D2EC0FF0010E2EEC89
:100990000DF00C0E2EEC0DF0820E386EDE0EE82EF1
:1009A000FED7382EFCD7D3EC12F03D6E3D50440AF2
:1009B000D8B404D03D50300AD8A404D0000E476EFD
:1009C000000E466E46044710D8B4A9D73D50440ADD
:1009D000D8A456D3D3EC12F03D6E000E476E010E34
:1009E000466E07EC0CF0010E2EEC0DF00C0E2EEC0A
:1009F0000DF0010E046E080E066E560E056E010E09
:100A00008AEC0FF0010E046E080E066E620E056E83
:100A1000020E8AEC0FF0D2EC0FF0D3EC12F03D6E28
:100A200007EC0CF0010E2EEC0DF00C0E2EEC0DF080
:100A3000010E046E080E066E3C0E056E010E8AEC69
:100A40000FF0D2EC0FF0D3EC12F03D6E3D50430AA4
:100A5000D8A4DAD0000E4F6E010E4E6E07EC0CF0EB
:100A6000010E2EEC0DF00C0E2EEC0DF0DAEC12F067
:100A7000D3EC12F03D6E07EC0CF0010E2EEC0DF0F5
:100A80000C0E2EEC0DF0010E046E080E066E7A0EA2
:100A9000056E010E8AEC0FF0010E046E080E066E54
:100AA000850E056E020E8AEC0FF0D2EC0FF0010EEF
:100AB0002EEC0DF00C0E2EEC0DF0010E046E080E57
:100AC000066E9B0E056E010E8AEC0FF0D2EC0FF055
:100AD000D3EC12F03D6E3D50410AD8A42BD0000E4D
:100AE000476E010E466E07EC0CF0010E2EEC0DF079
:100AF0000C0E2EEC0DF0010E046E080E066E7A0E32
:100B0000056E010E8AEC0FF0DAEC12F0D3EC12F065
:100B10003D6E39EC11F0D3EC12F03D6E3D502A0AD7
:100B2000D8A404D0000E476E000E466E460447104F
:100B3000D8B4EFD73D50420AD8A42BD0000E476E50
:100B4000010E466E07EC0CF0010E2EEC0DF00C0EB3
:100B50002EEC0DF0010E046E080E066E900E056E62
:100B6000010E8AEC0FF0DAEC12F0D3EC12F03D6ECD
:100B700005EC11F0D3EC12F03D6E3D502A0AD8A4DA
:100B800004D0000E476E000E466E46044710D8B4DF
:100B9000EFD73D50430AD8A42BD0000E476E010E6C
:100BA000466E07EC0CF0010E2EEC0DF00C0E2EEC48
:100BB0000DF0010E046E080E066E9B0E056E010E02
:100BC0008AEC0FF0DAEC12F0D3EC12F03D6ED1ECBF
:100BD00010F0D3EC12F03D6E3D502A0AD8A404D098
:100BE000000E476E000E466E46044710D8B4EFD78D
:100BF0003D50440AD8A404D0000E4F6E000E4E6E35
:100C00004E044F10D8B437D73D50420AD8A4DAD09A
:100C1000000E4F6E010E4E6E07EC0CF0010E2EEC26
:100C20000DF00C0E2EEC0DF0DAEC12F0D3EC12F00D
:100C30003D6E07EC0CF0010E2EEC0DF00C0E2EECC0
:100C40000DF0010E046E080E066E7A0E056E010E92
:100C50008AEC0FF0010E046E080E066E850E056E0E
:100C6000020E8AEC0FF0D2EC0FF0010E2EEC0DF01C
:100C70000C0E2EEC0DF0010E046E080E066E9B0E8F
:100C8000056E010E8AEC0FF0D2EC0FF0D3EC12F0EF
:100C90003D6E3D50410AD8A42BD0000E476E010E88
:100CA000466E07EC0CF0010E2EEC0DF00C0E2EEC47
:100CB0000DF0010E046E080E066E7A0E056E010E22
:100CC0008AEC0FF0DAEC12F0D3EC12F03D6EA1ECEE
:100CD00011F0D3EC12F03D6E3D502A0AD8A404D096
:100CE000000E476E000E466E46044710D8B4EFD78C
:100CF0003D50420AD8A42BD0000E476E010E466E1E
:100D000007EC0CF0010E2EEC0DF00C0E2EEC0DF09D
:100D1000010E046E080E066E900E056E010E8AEC32
:100D20000FF0DAEC12F0D3EC12F03D6E6DEC11F036
:100D3000D3EC12F03D6E3D502A0AD8A404D0000E28
:100D4000476E000E466E46044710D8B4EFD73D50AC
:100D5000430AD8A42BD0000E476E010E466E07EC56
:100D60000CF0010E2EEC0DF00C0E2EEC0DF0010E21
:100D7000046E080E066E9B0E056E010E8AEC0FF0D7
:100D8000DAEC12F0D3EC12F03D6E97EC10F0D3ECED
:100D900012F03D6E3D502A0AD8A404D0000E476ED2
:100DA000000E466E46044710D8B4EFD73D50440AB3
:100DB000D8A404D0000E4F6E000E4E6E4E044F109D
:100DC000D8B437D73D50410AD8A44BD1000E4F6E4E
:100DD000010E4E6E07EC0CF0010E2EEC0DF00C0E19
:100DE0002EEC0DF0010E046E080E066EC40E056E9C
:100DF000010E8AEC0FF0010E046E080E066E6E0EE8
:100E0000056E020E8AEC0FF0D2EC0FF0D3EC12F06C
:100E10003D6E3D50310AD8A497D0000E496E010EA8
:100E2000486E010E2EEC0DF00C0E2EEC0DF0010EA6
:100E3000046E080E066E200E056E010E8AEC0FF091
:100E4000010E046E080E066EBB0E056E020E8AECD5
:100E50000FF0D2EC0FF0D3EC12F03D6E3D50410A92
:100E6000D8A433D0000E3A6E010E396E0001000E88
:100E7000166E0001DA0E156E76EC12F00001000E0F
:100E80000A6E0001DA0E096E58EC12F00001000E35
:100E9000086E0001DA0E076E25EC0FF007C04AF06D
:100EA00008C04BF0DAEC12F0D3EC12F03D6ED2EC4D
:100EB0000FF03D50230AD8A404D0000E3A6E000E65
:100EC000396E39043A10D8B4EDD73D50420AD8A44F
:100ED0002FD0000E3C6E010E3B6E0001000E166E10
:100EE0000001D00E156E8EEC12F00001000E0A6E9D
:100EF0000001D00E096E58EC12F00001000E086ED1
:100F00000001D00E076E25EC0FF007C04CF008C0B2
:100F10004DF0D3EC12F03D6E3D50230AD8A404D01E
:100F2000000E3C6E000E3B6E3B043C10D8B4F1D773
:100F30003D502A0AD8A404D0000E496E000E486E17
:100F400048044910D8B46DD73D50320AD8A47AD09D
:100F500007EC0CF0010E2EEC0DF00C0E2EEC0DF04B
:100F6000010E046E080E066ED50E056E010E8AEC9B
:100F70000FF00D0E046E080E066EE10E056E010EEA
:100F80008AEC0FF04AC00FF04BC010F0116A126AE1
:100F9000000E146E540E136E85EC0AF00F50506E56
:100FA000080E046E000E066E540E056E010ED5EC92
:100FB00011F0010E046E080E066ECD0E056E020EC7
:100FC0008AEC0FF00C0E046E080E066EE40E056E31
:100FD000020E8AEC0FF04CC00FF04DC010F0116AF9
:100FE000126A000E146E540E136E85EC0AF00F5048
:100FF000506E080E046E000E066E540E056E020E44
:10100000D5EC11F04CC00EF04DC00FF04AC010F0FE
:101010004BC011F079EC08F0D3EC12F03D6E000EED
:10102000496E010E486ED3EC12F03D6E3D502A0A17
:10103000D8A404D0000E496E000E486E4804491032
:10104000D8B4F1D73D50440AD8A407D0010E2EECF5
:101050000DF0000E4F6E000E4E6E4E044F10D8B4C1
:10106000B9D63D50230AD8A407D0010E2EEC0DF0BE
:10107000000E476E000E466E46044710D8B4B1D439
:101080003D50300AD8A440D4000E476E010E466E83
:1010900007EC0CF0010E2EEC0DF00C0E2EEC0DF00A
:1010A000010E046E080E066EDB0E056E010E8AEC54
:1010B0000FF0D2EC0FF0D3EC12F03D6E07EC0CF019
:1010C000010E2EEC0DF00C0E2EEC0DF0000E2EECA1
:1010D0000DF0D3EC12F03D6E3D502A0AD8A404D096
:1010E000000E476E000E466E46044710D8A40CD47E
:1010F000E5D79492000E0F015D6F000E176E010E82
:10110000166E000E1A6E090E1B6E3D0E1C6E000E42
:101110001D6E1AC001F01BC002F01CC003F01DC000
:1011200004F010C005F011C006F0076A086A19EC57
:1011300010F001C01AF002C01BF003C01CF004C084
:101140001DF01AC012F01BC013F01CC014F01DC01B
:1011500015F0030E05D0D890153214321332123226
:10116000E82EF9D712C01AF013C01BF014C01CF0FF
:1011700015C01DF0000EBA6E28D016C012F017C0B0
:1011800013F0D89012361336D8901236133612C098
:1011900016F013C017F0BA2A1AC012F01BC013F0D1
:1011A0001CC014F01DC015F0030E05D0D8901532E8
:1011B000143213321232E82EF9D712C01AF013C0CB
:1011C0001BF014C01CF015C01DF0010E126E010EB4
:1011D000136E000E146E000E156E12501A5C135032
:1011E0001B5814501C5815501D58D8B0C6D71A0695
:1011F000000E1B5A1C5A1D5A1AC0BBFF1AC01EF003
:101200001BC01FF01CC020F01DC021F0010E1E26C7
:10121000000E1F22202221220EC001F00FC002F07A
:10122000036A046A1EC005F01FC006F020C007F064
:1012300021C008F006EC12F001C01EF002C01FF041
:1012400003C020F004C021F01EC012F01FC013F034
:1012500020C014F021C015F0020ED89012361336BB
:1012600014361536E82EF9D712C01EF013C01FF041
:1012700014C020F015C021F01EC001F01FC002F004
:1012800020C003F021C004F0640E056E000E066E4F
:10129000000E076E000E086E19EC10F001C01EF073
:1012A00002C01FF003C020F004C021F01EC018F0DF
:1012B0001FC019F0030E1814186E196A18C012F026
:1012C00019C013F0123A133AF00E131612500F0B06
:1012D0001312F00E121612C018F013C019F00C0EF3
:1012E000976E97501810976E1EC012F01FC013F023
:1012F00020C014F021C015F0030E05D0D89015328F
:10130000143213321232E82EF9D712C01EF013C075
:101310001FF014C020F015C021F01EC090FFBA8449
:10132000000EBC6E1200899089828984898680B8FB
:101330000CD0750E016EE10EE82EFED7012EFCD703
:1013400000F080A8FED7440E120080BA0CD0750EB3
:10135000016EE10EE82EFED7012EFCD700F080AA28
:10136000FED7430E120080BC0CD0750E016EE10E4C
:10137000E82EFED7012EFCD700F080ACFED7420E3F
:10138000120080BE0CD0750E016EE10EE82EFED765
:10139000012EFCD700F080AEFED7410E12008980EE
:1013A00089928984898680B80CD0750E016EE10E11
:1013B000E82EFED7012EFCD700F080A8FED7230E22
:1013C000120080BA0CD0750E016EE10EE82EFED729
:1013D000012EFCD700F080AAFED7390E120080BC87
:1013E0000CD0750E016EE10EE82EFED7012EFCD753
:1013F00000F080ACFED7360E120080BE0CD0750E09
:10140000016EE10EE82EFED7012EFCD700F080AE73
:10141000FED7330E1200898089828994898680B82C
:101420000CD0750E016EE10EE82EFED7012EFCD712
:1014300000F080A8FED7300E120080BA0CD0750ED6
:10144000016EE10EE82EFED7012EFCD700F080AA37
:10145000FED7380E120080BC0CD0750E016EE10E66
:10146000E82EFED7012EFCD700F080ACFED7350E5B
:10147000120080BE0CD0750E016EE10EE82EFED774
:10148000012EFCD700F080AEFED7320E120089800C
:1014900089828984899680B80CD0750E016EE10E20
:1014A000E82EFED7012EFCD700F080A8FED72A0E2A
:1014B000120080BA0CD0750E016EE10EE82EFED738
:1014C000012EFCD700F080AAFED7370E120080BC98
:1014D0000CD0750E016EE10EE82EFED7012EFCD762
:1014E00000F080ACFED7340E120080BE0CD0750E1A
:1014F000016EE10EE82EFED7012EFCD700F080AE83
:10150000FED7310E1200200E1200000E306E000EBB
:101510002F6E000E316E0FC034F010C035F011C0C8
:1015200036F012C037F0000E336E2E0E326E32C01F
:10153000D9FF33C0DAFF000EDF6E3750800A800F0C
:1015400008E1000E365C05E1000E355C02E1000E9C
:10155000345CD8B01AD034C001F035C002F036C0C7
:1015600003F037C004F0FF0E056EFF0E066EFF0E8F
:10157000076EFF0E086E06EC12F001C034F002C0D8
:1015800035F003C036F004C037F03206D8A0330679
:1015900034C001F035C002F036C003F037C004F0AB
:1015A0000A0E056E000E066E000E076E000E086E27
:1015B000B7EC0EF001C015F002C016F003C017F032
:1015C00004C018F015C02FF016C030F02F50300FA7
:1015D00032C0D9FF33C0DAFFDF6E34C001F035C04E
:1015E00002F036C003F037C004F00A0E056E000E9C
:1015F000066E000E076E000E086EC1EC0DF001C005
:1016000034F002C035F003C036F004C037F0375074
:10161000341035103610D8A4B8D71250800A800F75
:1016200008E1000E115C05E1000E105C02E1000E05
:101630000F5CD8B009D03206D8A0330632C0D9FF2B
:1016400033C0DAFF2D0EDF6E32C015F033C016F056
:10165000151E161E154A162A150E1526000E1622E0
:101660001A0E176E000E186E1550172616501822F7
:1016700017C034F018C035F0000E35BEFF0E366EC0
:10168000376E000E316E13D03150010DF3503224FD
:10169000D96EF4503320DA6E3150010DF35013241B
:1016A000E16EF4501420E26EDFCFE7FF312A31C043
:1016B00015F0166A176A186A1850800A196E3450A5
:1016C000155C35501658365017583750800A19583F
:1016D000D8A0DAD7FF0E34240F6EFF0E3520106E1F
:1016E0001200036E83968382016A03AE01D0012A41
:1016F000010E011601320132835001187F0B0118CF
:10170000836E03C001F0060E026ED8900132022EE5
:10171000FCD7010E0116013A01460146835001181B
:10172000BF0B0118836E03C001F0050E026ED89046
:101730000132022EFCD7010E0116013A01468350F8
:101740000118DF0B0118836E03C001F0013A0F0E80
:101750000116010E0116013A83500118EF0B011812
:10176000836E030EE82EFED700F0838600F000D0D3
:1017700000D0839603C001F0D8900132D890013296
:10178000D8900132010E0116013201328350011846
:101790007F0B0118836E03C001F0D8900132D890FE
:1017A0000132010E0116013A01460146835001182B
:1017B000BF0B0118836E03C001F0D8900132010EF7
:1017C0000116013A014683500118DF0B0118836EA0
:1017D00003C001F0010E0116013A83500118EF0B0E
:1017E0000118836E030EE82EFED700F0838600F00A
:1017F00000D000D0839600F000D000D0080E016E1B
:10180000230EE82EFED7012EFCD700F01200959E85
:10181000959C959A9598959695929594839E839C80
:10182000839A8398839683928394080E046E230E82
:10183000E82EFED7042EFCD700F0080E046E230E0F
:10184000E82EFED7042EFCD700F0080E046E230EFF
:10185000E82EFED7042EFCD700F0080E046E230EEF
:10186000E82EFED7042EFCD700F0080E046E230EDF
:10187000E82EFED7042EFCD700F0080E046E230ECF
:10188000E82EFED7042EFCD700F0010E056E1ED008
:10189000839E839C838A838883968392839E839C82
:1018A000838A83888386839200F000D000D0839E51
:1018B000839C838A838883968392080E046E230E0A
:1018C000E82EFED7042EFCD700F0052A030E05648F
:1018D000DFD7839E839C838A839883968392839E9B
:1018E000839C838A83988386839200F000D000D003
:1018F000839E839C838A839883968392080E046ECA
:10190000230EE82EFED7042EFCD700F0280E056E1D
:1019100005502EEC0DF0100E056E05502EEC0DF05E
:10192000010E056E05502EEC0DF00F0E056E0550E4
:101930002EEC0DF012002B0E146E000E0E6E000E2B
:101940000D6E000E136E000E126E000E116E010E63
:10195000106E10C004F011C005F0000E076E020EEC
:10196000066E31EC12F0D3EC12F0146E1450200A13
:10197000D8B4F9D714502A0AD8B467D01450420A00
:10198000D8A417D01006D8A0110610C004F011C0BA
:1019900005F0000E076E020E066E31EC12F01350C9
:1019A0001210D8B403D01206D8A01306000E0F6E82
:1019B000DAD70F50146221D01450230AD8B406D0BD
:1019C0001006D8A011061206D8A0130610C004F005
:1019D00011C005F0000E076E020E066E31EC12F01B
:1019E000104A112A12500B24D96E13500C20DA6EB3
:1019F00014C0DFFF124A132AB6D7000E0E6E000E77
:101A00000D6E1450230AD8A404D014500F18D8A473
:101A100019D010C004F011C005F0000E076E020EC0
:101A2000066E31EC12F012500B24D96E13500C20BC
:101A3000DA6E14C0DFFF124A132A145071EC0BF057
:101A4000104A112A14C00FF08ED712500B24D96EF1
:101A500013500C20DA6E000EDF6E1200036E8396B8
:101A60008392016A03AE01D0012A010E01160132F0
:101A70000132835001187F0B0118836E03C001F0FF
:101A8000060E026ED8900132022EFCD7010E01160E
:101A9000013A0146014683500118BF0B0118836EBD
:101AA00003C001F0050E026ED8900132022EFCD761
:101AB000010E0116013A014683500118DF0B01188F
:101AC000836E03C001F0013A0F0E0116010E0116DC
:101AD000013A83500118EF0B0118836E030EE82EB4
:101AE000FED700F0838600F000D000D0839603C0BC
:101AF00001F0D8900132D8900132D8900132010E15
:101B0000011601320132835001187F0B0118836ED8
:101B100003C001F0D8900132D8900132010E0116B5
:101B2000013A0146014683500118BF0B0118836E2C
:101B300003C001F0D8900132010E0116013A0146AE
:101B400083500118DF0B0118836E03C001F0010EF2
:101B50000116013A83500118EF0B0118836E030E32
:101B6000E82EFED700F0838600F000D000D08396E8
:101B7000080E016E230EE82EFED7012EFCD700F0D2
:101B80001200000E0A6E0850800A800F08E1000E55
:101B9000075C05E1000E065C02E1000E055CD8B0B2
:101BA0000AD0081E071E061E056C000E062207221C
:101BB0000822010E0A6E0450800A800F08E1000E10
:101BC000035C05E1000E025C02E1000E015CD8B08E
:101BD0000AD0041E031E021E016C000E0222032204
:101BE0000422010E0A1A000E0B6E000E0C6E000E7F
:101BF0000D6E000E0E6E0850051006100710D8B4BA
:101C00002AD0010E096E06D0D89005360636073662
:101C10000836092A08AEF8D7D8900B360C360D36A0
:101C20000E360550015C0650025807500358085004
:101C30000458D8A009D00550015E0650025A07503A
:101C4000035A0850045A0B80D890083207320632E3
:101C50000532092EE1D70A50D8B408D00E1E0D1E49
:101C60000C1E0B6C000E0C220D220E220BC001F07C
:101C70000CC002F00DC003F00EC004F01200100002
:101C8000110013001500170019001A001B001D0099
:101C90001E001E001F001F001F001F001E001E0050
:101CA0001D001B001A001900170015001300110079
:101CB00010000E000C000A000800060005000400D9
:101CC000020001000100000000000000000001000F
:101CD0000100020004000500060008000A000C00D4
:101CE0000E001000130017001A001D001E001F0038
:101CF0001F001E001B001900150011000E000A0035
:101D000006000400010000000000010002000500C0
:101D100008000C000300060009000C00100013006E
:101D2000160019001C001F001C00190016001300EB
:101D300010000C0009000600030000000400080069
:101D40000C001100150019001D001F001D001900D6
:101D5000150011000C000800040006000C00130020
:101D600019001F00190013000C0006000000000EEF
:101D70000A6E0450800A800F08E1000E035C05E142
:101D8000000E025C02E1000E015CD8B00AD0041E15
:101D9000031E021E016C000E022203220422010E09
:101DA0000A6E0850800A800F08E1000E075C05E10A
:101DB000000E065C02E1000E055CD8B008D0081EDB
:101DC000071E061E056C000E062207220822085078
:101DD000051006100710D8B424D0010E096E06D0E5
:101DE000D8900536063607360836092A08AEF8D7E1
:101DF0000550015C0650025807500358085004581B
:101E0000D8A008D00550015E0650025A0750035A68
:101E10000850045AD8900832073206320532092E8B
:101E2000E7D70A50D8B408D0041E031E021E016C66
:101E3000000E02220322042201C001F002C002F0BF
:101E400003C003F004C004F0120002D0074A082ABD
:101E500007C0D9FF08C0DAFFDF50200AD8B4F6D790
:101E600007C0D9FF08C0DAFFDF50090AD8B4EED79F
:101E7000000E0D6E000E0C6E000E0B6E2D0E07C0C8
:101E8000D9FF08C0DAFFDF6202D00B2A23D02B0E65
:101E900007C0D9FF08C0DAFFDF621ED01BD00CC01C
:101EA00001F00DC002F0000E046E0A0E036EA6ECE7
:101EB00012F007C0D9FF08C0DAFFDF50096E0A6AC6
:101EC0000150092602500A22D00E09240C6EFF0E82
:101ED0000A200D6E074A082A07C0D9FF08C0DAFF9A
:101EE000DF50B9EC12F0D8B0DAD70B50D8B40DD01F
:101EF0000CC009F00DC00AF0091E0A1E094A0A2A80
:101F000009C007F00AC008F012000CC007F00DC0AD
:101F100008F01200076E0DD00450800F08D0045056
:101F2000C00F05D00450940F02D00450D40F086E97
:101F30000DD00750010AD8B4EFD7030AD8B4EFD7B1
:101F4000010AD8B4EFD7070AD8B4EFD708502EEC5F
:101F50000DF014D005C0F6FF06C0F7FFF86A070EB3
:101F6000F76403D00800F55005D0F6CFE9FFF7CFAE
:101F7000EAFFEF5071EC0BF0054A062A05C0F6FFA8
:101F800006C0F7FFF86A070EF76403D00800F550A3
:101F900005D0F6CFE9FFF7CFEAFFEF500009D8B43C
:101FA0001200D8D7820E016EDE0EE82EFED7012E6B
:101FB000FCD7820E016EDE0EE82EFED7012EFCD776
:101FC000820E016EDE0EE82EFED7012EFCD7820EA9
:101FD000016EDE0EE82EFED7012EFCD7820E016EBA
:101FE000DE0EE82EFED7012EFCD7820E016EDE0E2D
:101FF000E82EFED7012EFCD7820E016EDE0EE82EF3
:10200000FED7012EFCD7820E016EDE0EE82EFED723
:10201000012EFCD7820E016EDE0EE82EFED7012EB9
:10202000FCD7820E016EDE0EE82EFED7012EFCD705
:102030001200000E096E000E0A6E000E0B6E000EEE
:102040000C6E0850051006100710D8B42AD0010EE7
:102050000D6E06D0D89005360636073608360D2A9E
:1020600008AEF8D7D89009360A360B360C3605502C
:10207000015C065002580750035808500458D8A075
:1020800009D00550015E0650025A0750035A085005
:10209000045A0980D89008320732063205320D2ED4
:1020A000E1D709C001F00AC002F00BC003F00CC078
:1020B00004F0120000EEC6F01E0EEE6AE806FDE126
:1020C00000EE3EF0200EEE6AE806FDE17E0EF66EB2
:1020D0001C0EF76E000EF86E01EE00F010EEF0F040
:1020E0000900F5CFEEFFE550E150FAE1920EF66EF1
:1020F000250EF76E000EF86E00EEE4F010EE14F010
:102100000900F5CFEEFFE550E150FAE1BE0EF66EA4
:10211000250EF76E000EF86E0900F5CF5EF009008F
:10212000F5CF5FF0000EF86E000174EF04F0570E6B
:10213000D36E21EE00F010EE60F0640EDECFE6FF0D
:10214000E82EFCD7A00E7C6E000E0001C56F000EBD
:102150000001C46F0001C551800A800F320ED8B44F
:10216000C45DD8B01200600E016E000E026ED890F1
:102170000001C435D96E0001C535DA6E0150D9268B
:102180000250DA22DF50036E7B500318E00B031875
:102190007B6EFA0E00F0E82EFDD70001C44BC52B74
:1021A000D9D7570ED36E21EE96F010EE04F0280E1C
:1021B000DECFE6FFE82EFCD7A00E7C6E000E2D6E63
:1021C000000E2C6E2D50800A800F140ED8B42C5C9B
:1021D000D8B01200040E016E000E026ED8902C349E
:1021E000D96E2D34DA6E0150D9260250DA22DF5032
:1021F000036E7B500318E00B03187B6EFA0E00F0A1
:10220000E82EFDD72C4A2D2ADDD7570ED36E21EEAE
:10221000BEF010EE04F01E0EDECFE6FFE82EFCD777
:10222000A00E7C6E000E236E000E226E2350800ADC
:10223000800F0F0ED8B4225CD8B01200040E016ECD
:10224000000E026ED8902234D96E2334DA6E01501B
:10225000D9260250DA22DF50036E7B500318E00BC0
:1022600003187B6EFA0E00F0E82EFDD7224A232ACF
:10227000DDD7570ED36E21EEDCF010EE04F0140E15
:10228000DECFE6FFE82EFCD7A00E7C6E000E196EA6
:10229000000E186E1950800A800F0A0ED8B4185C10
:1022A000D8B01200040E016E000E026ED8901834E1
:1022B000D96E1934DA6E0150D9260250DA22DF5075
:1022C000036E7B500318E00B03187B6EFA0E00F0D0
:1022D000E82EFDD7184A192ADDD7570ED36E21EE06
:1022E00064F010EE04F0320EDECFE6FFE82EFCD7ED
:1022F000A00E7C6E000E376E000E366E3750800AD0
:10230000800F190ED8B4365CD8B01200040E016EDE
:10231000000E026ED8903634D96E3734DA6E015022
:10232000D9260250DA22DF50036E7B500318E00BEF
:1023300003187B6EFA0E00F0E82EFDD7364A372AD6
:10234000DDD7570ED36E20EEE4F010EE04F0140E3D
:10235000DECFE6FFE82EFCD7A00E7C6E000E196ED5
:10236000000E186E1950800A800F0A0ED8B4185C3F
:10237000D8B01200040E016E000E026ED890183410
:10238000D96E1934DA6E0150D9260250DA22DF50A4
:10239000036E7B500318E00B03187B6EFA0E00F0FF
:1023A000E82EFDD7184A192ADDD7076E0DD0045044
:1023B000800F08D00450C00F05D00450940F02D0F5
:1023C0000450D40F086E0DD00750010AD8B4EFD7CF
:1023D000030AD8B4EFD7010AD8B4EFD7070AD8B4A4
:1023E000EFD708502EEC0DF009D005C0D9FF06C07C
:1023F000DAFFDF5071EC0BF0054A062A05C0D9FF61
:1024000006C0DAFFDF50D8B41200EFD7000E096E15
:10241000000E0A6E000E0B6E000E0C6E01A008D0AE
:102420000550092606500A2207500B2208500C229C
:10243000D8900536063607360836D890043203326F
:10244000023201320450011002100310D8A4E6D762
:1024500009C001F00AC002F00BC003F00CC004F088
:1024600012000DD00450800F08D00450C00F05D0CA
:102470000450940F02D00450D40F0A6E15D006C039
:1024800008F007C009F00950000AD8A40DD0085080
:10249000010AD8B4E7D7030AD8B4E7D7010AD8B4F9
:1024A000E7D7070AD8B4E7D70A502EEC0DF0120090
:1024B000000E0B6E000E0C6E07EC0CF0010E2EECF5
:1024C0000DF00C0E2EEC0DF0010E046E0AC006F09D
:1024D00009C005F0010E8AEC0FF0D2EC0FF0010EEE
:1024E0002EEC0DF0D3EC12F0536E120007EC0CF052
:1024F000010E2EEC0DF00C0E2EEC0DF0010E046E04
:10250000080E066E4A0E056E010E8AEC0FF016C01C
:102510000CF015C00BF09BEC0CF0120007EC0CF06B
:10252000010E2EEC0DF00C0E2EEC0DF0010E046ED3
:10253000080E066E2E0E056E010E8AEC0FF016C008
:102540000CF015C00BF09BEC0CF0120001500302D4
:10255000F3CF05F0F4CF06F001500402F350062645
:1025600002500302F350062605C001F006C002F037
:102570001200036E000E026E3A0E035CD8B005D056
:102580002F0E036402D0010E026E02C001F0013072
:102590001200100019001E001E0019001000060095
:1025A000010001000600200E026E93EC09F0026E9D
:1025B00002501200000E806EF00E926E12000100AA
:020000040020DA
:08000000FFFFFFFFFFFFFFFF00
:020000040030CA
:0E00000000085E3CFFD381FF0FC00FE00F40F1
:00000001FF
